:100000000C9463000C948B000C948B000C94DC0417
:100010000C94DC040C94DC040C948B000C948B008A
:100020000C948B000C948B000C948B000C948B0024
:100030000C948B000C948B000C948B000C948B0014
:100040000C943A040C948B000C94AA040C94840431
:100050000C948B000C948B000C948B000C948B00F4
:100060000C948B000C948B000000000024002700EF
:100070002A0000000008000201000003040700003D
:1000800000000000000000000000230026002900FE
:1000900000000000250028002B00040404040404D0
:1000A0000404020202020202030303030303010227
:1000B00004081020408001020408102001020408F6
:1000C00010205405540711241FBECFEFD8E0DEBF27
:1000D000CDBF11E0A0E0B1E0E4EBFFE002C005908D
:1000E0000D92A83AB107D9F722E0A8EAB1E001C021
:1000F0001D92A13BB207E1F710E0C2E6D0E004C0D8
:100100002197FE010E94C707C136D107C9F70E9497
:10011000FF050C94CD070C94000090E0FC01EE5814
:10012000FF4F2491FC01E255FF4F3491FC01E6564C
:10013000FF4FE491EE23C9F0222339F0233001F17F
:10014000A8F4213019F1223029F1F0E0EE0FFF1F61
:10015000E057FF4FA591B4918FB7F894EC916111DE
:1001600026C030953E233C938FBF08952730A9F0D9
:100170002830C9F0243049F7809180008F7D03C07A
:10018000809180008F7780938000DFCF84B58F7758
:1001900084BDDBCF84B58F7DFBCF8091B0008F779E
:1001A0008093B000D2CF8091B0008F7DF9CF3E2BED
:1001B000DACFCF93DF9390E0FC01E255FF4F24911B
:1001C00086569F4FFC0184918823D1F090E0880FE0
:1001D000991FFC01E859FF4FA591B491FC01E0572C
:1001E000FF4FC591D49161110EC09FB7F8948C91C7
:1001F000E22FE0958E238C932881E223E8839FBF32
:10020000DF91CF9108958FB7F894EC91E22BEC93A6
:100210008FBFF6CF1F93CF93DF93182FEB0161E0D1
:100220000E94D900209739F460E0812FDF91CF91AF
:100230001F910C948D00CF3FD10511F461E0F5CFF3
:10024000E12FF0E0EE58FF4FE491E33031F140F45C
:10025000E130B1F0E230E1F0C038D1057CF7E4CF15
:10026000E73029F1E83059F1E430B1F780918000AE
:10027000806280938000D0938B00C0938A0004C07A
:1002800084B5806884BDC7BDDF91CF911F9108956B
:1002900084B5806284BDC8BDF7CF8091800080683E
:1002A00080938000D0938900C0938800EDCF809127
:1002B000B00080688093B000C093B300E5CF809118
:1002C000B00080628093B000C093B400DDCFAF92E5
:1002D000BF92CF92DF92EF92FF920F931F93CF9333
:1002E000DF936C017B018B01040F151FEB015E0195
:1002F000AE18BF08C017D10759F06991D601ED912A
:10030000FC910190F081E02DC6010995892B79F7C8
:10031000C501DF91CF911F910F91FF90EF90DF907A
:10032000CF90BF90AF900895FC01538D448D252F41
:1003300030E0842F90E0821B930B541710F0CF967F
:10034000089501970895FC01918D828D981761F0B1
:10035000A28DAE0FBF2FB11D5D968C91928D9F5FC8
:100360009F73928F90E008958FEF9FEF0895FC01A7
:10037000918D828D981731F0828DE80FF11D858D5A
:1003800090E008958FEF9FEF0895FC01918D228DED
:10039000892F90E0805C9F4F821B91098F73992772
:1003A000089585EF91E00E94C50121E0892B09F4B1
:1003B00020E0822F089580E090E0892B29F00E94B0
:1003C000D10181110C9400000895FC01A48DA80FA7
:1003D000B92FB11DA35ABF4F2C91848D90E0019687
:1003E0008F739927848FA689B7892C93A089B189A7
:1003F0008C91837080648C93938D848D981306C048
:100400000288F389E02D80818F7D80830895EF92AB
:10041000FF920F931F93CF93DF93EC0181E0888FBE
:100420009B8D8C8D98131AC0E889F989808185FF8E
:1004300015C09FB7F894EE89FF896083E889F98930
:1004400080818370806480839FBF81E090E0DF9132
:10045000CF911F910F91FF90EF900895F62E0B8D85
:1004600010E00F5F1F4F0F731127E02E8C8D8E1140
:100470000CC00FB607FCFACFE889F989808185FFA7
:10048000F5CFCE010E94E501F1CFEB8DEC0FFD2FF2
:10049000F11DE35AFF4FF0829FB7F8940B8FEA8962
:1004A000FB8980818062CFCFCF93DF93EC01888D71
:1004B0008823B9F0AA89BB89E889F9898C9185FDDF
:1004C00003C0808186FD0DC00FB607FCF7CF8C916D
:1004D00085FFF2CF808185FFEDCFCE010E94E5013F
:1004E000E9CFDF91CF9108952091EA013091EB019E
:1004F0002817390771F49091E8018091E901981764
:1005000041F0E091E801F0E0E855FE4F808190E095
:1005100008958FEF9FEF08950895EF92FF920F9344
:100520001F93CF93DF93DC015C96ED90FC905D9779
:10053000E114F10479F481E090E013969C938E939A
:10054000129790E080E0DF91CF911F910F91FF9083
:10055000EF9008955196ED91FC91529750968C91A1
:100560005097982F90950FB75E962C915E97122F0B
:10057000127021FD6095F8942081112319F1282B28
:100580002083E7012197F1F728E0462F50E03081E2
:1005900060FF1AC0382B3083E7012197F1F7BA01C9
:1005A00075956795215089F7112381F08081892302
:1005B00080830FBF5C968D919C910197F1F781E04C
:1005C00090E0C1CF2923DCCF3923E5CF9081892B5F
:1005D000EFCF2091EA013091EB012817390761F440
:1005E0008091E9012091E80190E0805C9F4F821B9F
:1005F00091098F739927089590E080E008952091E4
:10060000EA013091EB0128173907B9F49091E8011C
:100610008091E901981789F0E091E801F0E0E85550
:10062000FE4F80812091E80130E02F5F3F4F2F7314
:1006300033272093E80190E008958FEF9FEF08950E
:1006400090E080E0089542E050E065E271E085EFDF
:1006500091E00C946701CF93DF93FC01019000209F
:10066000E9F73197AF01481B590BBC0185EF91E0C9
:100670000E946701EC010E9423038C0F9D1FDF91F4
:10068000CF910895CF93DF93C82F682F85EF91E026
:100690000E9407020E942303C83409F4D6C054F50F
:1006A000C23409F48EC044F480ED8C0F8A3008F413
:1006B0005EC0DF91CF910895C63409F46DC0C73490
:1006C000C1F760E089E00E948D0061E08AE00E944D
:1006D0008D00C09100016C2F70E08BE00E940A0138
:1006E00060E084E00E948D0061E085E00E948D0062
:1006F000C695A8C0CC3409F481C0DCF4C93409F42F
:1007000089C0CA34B1F661E089E00E948D0060E0E2
:100710008AE00E948D00C09100016C2F669570E008
:100720008BE00E940A0161E084E00E948D0060E09D
:1007300086C0C23509F468C0C33509F0BACF60E09D
:1007400089E00E948D0060E08AE00E948D0070E0E8
:1007500060E08BE00E940A0160E084E00E948D006E
:1007600060E085E00E948D0070E060E042C0C05310
:10077000AAE0CA9FA02D11240A2E000CBB0B2FEF5C
:1007800030E00E94C00724E630E040E050E00E94E4
:100790007007209300018DCF60E089E00E948D00FA
:1007A00061E08AE00E948D00C0910001D0E0BE01AE
:1007B0008BE00E940A0160E084E00E948D0061E00D
:1007C00014C061E089E00E948D0060E08AE00E9430
:1007D0008D00C0910001D0E0BE018BE00E940A01B3
:1007E00061E084E00E948D0060E085E00E948D0061
:1007F000BE0183E0DF91CF910C940A0160E089E0B3
:100800000E948D0061E0E2CF61E089E00E948D00EE
:1008100060E0C7CF60E089E00E948D0061E08AE07F
:100820000E948D00C09100016C2F669570E08BE0F6
:100830000E940A0160E084E00E948D0061E085E092
:100840000E948D006C2F70E0D4CF61E089E00E949F
:100850008D0060E08AE00E948D00C09100016C2F45
:1008600070E08BE00E940A0161E084E00E948D004C
:1008700060E03BCF1F920F920FB60F9211242F937F
:100880003F938F939F93AF93BF938091F10190918A
:10089000F201A091F301B091F4013091F00123E055
:1008A000230F2D3758F50196A11DB11D2093F0019E
:1008B0008093F1019093F201A093F301B093F401BE
:1008C0008091EC019091ED01A091EE01B091EF01CA
:1008D0000196A11DB11D8093EC019093ED01A093B1
:1008E000EE01B093EF01BF91AF919F918F913F9136
:1008F0002F910F900FBE0F901F90189526E8230F91
:100900000296A11DB11DD2CF1F920F920FB60F926A
:1009100011242F933F934F935F936F937F938F9304
:100920009F93AF93BF93EF93FF9385EF91E00E9466
:10093000E501FF91EF91BF91AF919F918F917F91D1
:100940006F915F914F913F912F910F900FBE0F903C
:100950001F9018951F920F920FB60F9211242F938C
:100960008F939F93EF93FF93E0910502F09106021E
:100970008081E0910B02F0910C0282FD1BC09081FE
:1009800080910E028F5F8F7320910F02821741F0CA
:10099000E0910E02F0E0EB50FE4F958F80930E0237
:1009A000FF91EF919F918F912F910F900FBE0F901C
:1009B0001F9018958081F4CF1F920F920FB60F925F
:1009C00011242F933F934F935F936F937F938F9354
:1009D0009F93AF93BF93EF93FF93E091EA01F09160
:1009E000EB01309749F0A685B7858585968D91FFF7
:1009F00014C09C918923A1F4FF91EF91BF91AF9115
:100A00009F918F917F916F915F914F913F912F9126
:100A10000F900FBE0F901F9018959C91892361F73E
:100A2000A389B4899C918589809589238C93868933
:100A300097890197F1F7608D718DA685B7855585EA
:100A400038E020E0CB010197F1F7822F90E09595F7
:100A50008795282F4C91452309F02068315091F754
:100A6000868D81FD20958091E90190E001968F733C
:100A700099273091E801381799F0A091E901B0E089
:100A8000A855BE4F2C938093E901828D938D0197D9
:100A9000F1F7A389B4898C919589892B8C93ACCF7C
:100AA000868D8160868FF1CF1092F8011092F70148
:100AB00088EE93E0A0E0B0E08093F9019093FA0112
:100AC000A093FB01B093FC0125E031E03093F601E7
:100AD0002093F50125EC30E03093020220930102CF
:100AE00024EC30E0309304022093030220EC30E049
:100AF000309306022093050221EC30E03093080287
:100B00002093070222EC30E030930A02209309027E
:100B100026EC30E030930C0220930B0210920E0270
:100B200010920F0210921002109211021092950270
:100B3000109294028093960290939702A093980249
:100B4000B093990287E191E090939302809392028F
:100B50001092A9021092A8021092AB021092AA025F
:100B60001092AD021092AC021092AF021092AE023F
:100B70006091B0026E7F6D7F6093B0026695617088
:100B800081E068278CE00E948D0061E08CE00E948B
:100B9000D900EAEBF0E0E491E093A202E6EAF0E0AB
:100BA000E491F0E0EE0FFF1FE057FF4F8591949125
:100BB0009093A4028093A30260E08DE00E94D9008C
:100BC0008091B00281FD04C061E08DE00E948D0043
:100BD0008DE080939E02EBEBF0E0E491E0939F02C6
:100BE000E7EAF0E0E491F0E0EE0FFF1FEA57FF4F75
:100BF000859194919093A1028093A0020895789496
:100C000084B5826084BD84B5816084BD85B5826011
:100C100085BD85B5816085BD80916E0081608093C2
:100C20006E0010928100809181008260809381002B
:100C3000809181008160809381008091800081603B
:100C4000809380008091B10084608093B100809196
:100C5000B00081608093B00080917A0084608093BE
:100C60007A0080917A00826080937A0080917A0085
:100C7000816080937A0080917A00806880937A0006
:100C80001092C10061E08BE00E94D90061E089E030
:100C90000E94D90061E08AE00E94D90061E083E00F
:100CA0000E94D90061E084E00E94D90061E085E003
:100CB0000E94D900E0910502F091060282E0808353
:100CC000E0910102F09102021082E0910302F091A2
:100CD00004028FEC808310920D02E0910902F091E2
:100CE0000A0286E08083E0910702F0910802808189
:100CF00080618083E0910702F09108028081886022
:100D00008083E0910702F0910802808180688083EF
:100D1000E0910702F091080280818F7D808310921C
:100D2000AD021092AC021092AB021092AA02109285
:100D3000A9021092A8028DE991E09093AF028093EE
:100D4000AE0290919E02963108F047C02DEB30E044
:100D50003093A9022093A8022BE931E03093AB0233
:100D60002093AA022CE231E03093AD022093AC0232
:100D70002091680084E0983048F031E09E3008F41B
:100D800030E081E001C0880F3A95EAF7822B80932A
:100D900068002DE630E0983050F02BE630E09E30D1
:100DA00030F02CE630E0963110F030E020E0309367
:100DB000A6022093A502292F30E0983008F067C0E2
:100DC00081E001C0880F9A95EAF78093A70280918D
:100DD000AE029091AF020197F1F78091AC02909131
:100DE000AD02892B49F1E091EA01F091EB0182E03B
:100DF000E239F80709F1309739F0A389B4899C9159
:100E00008589809589238C938091B0028E7F809311
:100E1000B0021092E9011092E80182E992E0909309
:100E2000EB018093EA01E091A502F091A602808196
:100E30009091A702892B808388E291E00E942B0386
:100E400088E391E00E942B03C0E0D0E085EF91E0C1
:100E50000E94C501892B31F085EF91E00E94A3012A
:100E60000E94420382E992E00E94E902892B31F05C
:100E700082E992E00E94FF020E944203209731F330
:100E80000E94D101882311F30E940000DFCF9E3021
:100E900040F42850310981E001C0880F2A95EAF713
:100EA00094CF2E503109F7CF87E191E090939302D0
:100EB000809392028091EA019091EB0182599240D5
:100EC00071F4E091A502F091A60290818091A702B1
:100ED0008095892380831092EB011092EA01089596
:100EE000052E97FB1EF400940E94870757FD07D03C
:100EF0000E948F0707FC03D04EF40C94870750958F
:100F00004095309521953F4F4F4F5F4F08959095F5
:100F10008095709561957F4F8F4F9F4F0895A1E207
:100F20001A2EAA1BBB1BFD010DC0AA1FBB1FEE1F63
:100F3000FF1FA217B307E407F50720F0A21BB30BAE
:100F4000E40BF50B661F771F881F991F1A9469F72A
:100F500060957095809590959B01AC01BD01CF0186
:100F60000895A29FB001B39FC001A39F700D811D82
:100F70001124911DB29F700D811D1124911D0895A2
:100F80000E94B107B7FF0895821B930B0895EE0FDF
:100F9000FF1F0590F491E02D099410E0C2E6D0E027
:100FA00004C0FE010E94C7072196C336D107C9F7C6
:040FB000F894FFCFE3
:100FB400AA000000000702670194015402C501A3BE
:100FC40001B701000000008D02670120038C02E9D3
:100FD40002FF0274020D0A00496E697469616C694A
:100FE4007A696E672E2E2E0055736520746865200D
:100FF40053657269616C204D6F6E69746F72206FF6
:101004007220426C7565746F6F746820746F2073FE
:10101400656E6420636F6D6D616E64732028462C69
:1010240020422C204C2C20522C20492C20472C20B0
:10103400482C204A2C20442C20532C20302D392994
:1010440020746F20636F6E74726F6C2074686520F7
:08105400726F626F742100004D
:00000001FF
